:02000000FF2ED1
:10000800FF00030E8301C1000A08C2008A017008BC
:10001800A3007108A2007208A1007308A000E726D7
:1000280001307006031D1B28FB260130A800230899
:10003800F0002208F1002108F2002008F30042082D
:0C0048008A00410E8300FF0E7F0E0900AD
:100054003D28053083120313F10054280630F100C3
:1000640054280730F10054280830F100542809308E
:10007400F10054282929831203134D080A3A03195D
:100084002B284D080B3A031930284D080C3A031954
:1000940033284D080D3A031936284D080E3A031932
:1000A40039283C2806298312031301304F06031D07
:1000B4005F287108840000146A2800304F06031D6D
:1000C40067287108840000106A28710884000010F1
:1000D40029298312031301304F06031D7528710863
:1000E40084008014802800304F06031D7D28710889
:1000F40084008010802871088400801029298312CC
:10010400031301304F06031D8B287108840000156A
:10011400962800304F06031D9328710884000011AF
:1001240096287108840000112929831203130130D1
:100134004F06031DA128710884008015AC280030E7
:100144004F06031DA928710884008011AC2871088A
:100154008400801129298312031301304F06031DE3
:10016400B728710884000016C22800304F06031D0A
:10017400BF28710884000012C2287108840000128C
:1001840029298312031301304F06031DCD2871085A
:1001940084008016D82800304F06031DD528710826
:1001A40084008012D82871088400801229298312BF
:1001B400031301304F06031DE32871088400001760
:1001C400EE2800304F06031DEB287108840000134D
:1001D400EE287108840000132929831203130130C7
:1001E4004F06031DF9287108840080170429003084
:1001F4004F06031D01297108840080130429710826
:100204008400801329292929831203134E08003AF4
:10021400031955284E08013A03196B284E08023A6F
:10022400031981284E08033A031997284E08043A03
:100234000319AD284E08053A0319C3284E08063A97
:100244000319D9284E08073A0319EF28052908008D
:1002540040290B3083120313CD000430CE0001304B
:10026400CF002A204B290B3083120313CD00053015
:10027400CE000130CF002A204B294B2983120313CF
:100284004C08003A03192B294C08013A0319352963
:040294003F290800F6
:1002980083120313F8010830FC00700DF80D740880
:1002A800F80203185929F8070310F00DFC0B51291F
:0202B80008003C
:1002BA000B3083120313CD00CE0101304C05CF0061
:1002CA002A200B3083120313CD000130CE000030F8
:1002DA00CC180130CF002A200B3083120313CD0033
:1002EA000230CE0000304C190130CF002A200B30EA
:1002FA0083120313CD000330CE000030CC19013035
:06030A00CF002A200800CC
:100310009C290B3083120313CD000430CE00CF0193
:100320002A20A7290B3083120313CD000530CE00FD
:10033000CF012A20A729A729831203134C08003ACA
:10034000031989294C08013A031992299B290800AD
:10035000831203137008F100F0010830FC007108EB
:10036000F40C0318B729FC0BB029F1010034031079
:10037000BC29F40C0318F107F10CF00CFC0BB929A3
:02038000080073
:10038200E0290C3083120313CD00CE010130CF00DF
:100392002A20EF290C3083120313CD000130CE0046
:1003A2000130CF002A20EF290C3083120313CD0035
:1003B2000230CE000130CF002A20EF29EF2983122C
:1003C20003134B08003A0319C2294B08013A0319D7
:0E03D200CB294B08023A0319D529DF29080070
:0A03E000831203134B08A900080064
:1003EA00112A0C3083120313CD00CE01CF012A202B
:1003FA00202A0C3083120313CD000130CE00CF0126
:10040A002A20202A0C3083120313CD000230CE009A
:10041A00CF012A20202A202A831203134B08003AEC
:10042A000319F6294B08013A0319FE294B08023A27
:08043A000319072A102A08002B
:1004420083120313CC012A21013083120313CC003F
:100452002A21522A0A3083120313F4002908F000D9
:100462004C217008CC005D2183120313CC0188213A
:10047200013083120313A6005D2A0A30F400290812
:10048200F0004C217808F0007008CC005D210130AA
:1004920083120313CC00882183120313A6015D2A61
:1004A2005D2A831203132608003A03192B2A260811
:0A04B200013A03193E2A512A0800FE
:0804BC00831603138C140800E1
:0804C4007F308B050B170800C7
:1004CC00831203139201FF30831692008312910161
:0804DC008C1083168C1008003F
:1004E4007F2A83120313480892008E2A4808920038
:1004F4008E2A480892008E2A8E2A831203134808F3
:10050400003A0319732A4808013A0319782A48085B
:10051400023A03197B2A7E2A402B4908F000F00D89
:100524007010F00D7010F00D701070089204812B93
:100534004908F000F00D7010F00D7010F00D7010FF
:1005440070089204812B4908F000F00D7010F00D32
:100554007010F00D701070089204812B4908F0009F
:10056400F00D7010F00D7010F00D70107008920402
:10057400812B4908F000F00D7010F00D7010F00D93
:10058400701070089204812B4908F000F00D70106F
:10059400F00D7010F00D701070089204812B490852
:1005A400F000F00D7010F00D7010F00D7010700868
:1005B4009204812B4908F000F00D7010F00D7010BA
:1005C400F00D701070089204812B4908F000F00DB2
:1005D4007010F00D7010F00D701070089204812BE3
:1005E4004908F000F00D7010F00D7010F00D70104F
:1005F40070089204812B4908F000F00D7010F00D82
:100604007010F00D701070089204812B4908F000EE
:10061400F00D7010F00D7010F00D70107008920451
:10062400812B4908F000F00D7010F00D7010F00DE2
:10063400701070089204812B4908F000F00D7010BE
:10064400F00D7010F00D701070089204812B4908A1
:10065400F000F00D7010F00D7010F00D70107008B7
:100664009204812B4908F000F00D7010F00D701009
:10067400F00D701070089204812B812B4908003A08
:1006840003198F2A4908013A03199A2A4908023A98
:100694000319A52A4908033A0319B02A4908043A58
:1006A4000319BB2A4908053A0319C62A4908063A18
:1006B4000319D12A4908073A0319DC2A4908083AD8
:1006C4000319E72A4908093A0319F22A49080A3A98
:1006D4000319FD2A49080B3A0319082B49080C3A57
:1006E4000319132B49080D3A03191E2B49080E3A16
:1006F4000319292B49080F3A0319342B3F2B0800FF
:040704008B17080047
:0807080083120313121508000F
:100710009B2B853083120313F100B22B8630F1003E
:10072000B22B8730F100B22B8830F100B22B893028
:10073000F100B22B872C8312031348080A3A0319DD
:10074000892B48080B3A03198E2B48080C3A0319D9
:10075000912B48080D3A0319942B48080E3A0319B7
:10076000972B9A2B642C8312031300304A06031D27
:10077000BD2B710884000010C82B01304A06031DF0
:10078000C52B710884000014C82B71088400001464
:10079000872C8312031300304A06031DD32B7108E4
:1007A00084008010DE2B01304A06031DDB2B71080C
:1007B00084008014DE2B710884008014872C83123F
:1007C000031300304A06031DE92B71088400001151
:1007D000F42B01304A06031DF12B7108840000152B
:1007E000F42B710884000015872C8312031300304A
:1007F0004A06031DFF2B7108840080110A2C01306A
:100800004A06031D072C7108840080150A2C710804
:1008100084008015872C8312031300304A06031DC1
:10082000152C710884000012202C01304A06031D8B
:100830001D2C710884000016202C710884000016FD
:10084000872C8312031300304A06031D2B2C7108DA
:1008500084008012362C01304A06031D332C7108A7
:1008600084008016362C710884008016872C831231
:10087000031300304A06031D412C71088400001345
:100880004C2C01304A06031D492C710884000017C6
:100890004C2C710884000017872C8312031300303E
:1008A0004A06031D572C710884008013622C013006
:1008B0004A06031D5F2C710884008017622C7108A2
:1008C00084008017872C872C831203134908003A71
:1008D0000319B32B4908013A0319C92B4908023AF5
:1008E0000319DF2B4908033A0319F52B4908043A89
:1008F00003190B2C4908053A0319212C4908063A1B
:100900000319372C4908073A03194D2C632C0800AA
:0C091000831203134808831692000800AD
:10091C003B308312031325020318962CA50A972C3F
:0A092C00A5012508CB00F02108000A
:040936002122080072
:10093A0083120313C801033048020318182D073025
:10094A00F0004808F400A82170082C3E8400000832
:10095A00F000840A0008F100840A0008F200840A00
:10096A0000087008F3007108F4007208F5007308B3
:10097A00F6000030F0007606031DCD2C70087506CF
:10098A00031DCD2C70087406031DCD2C7308003A84
:10099A000319162D0730F0004808F400A8212C305E
:1009AA00F00704307007F100710884000003F000BA
:1009BA0071088400700880000730F0004808F400CD
:1009CA00A8212C30F007043070078400003000069C
:1009DA00031D152D0730F0004808F400A8212C301B
:1009EA00F00706307007F10071088400000AF00071
:1009FA0071088400700880000730F0004808F4008D
:100A0A00A8212C30F00704307007F100033070077A
:100A1A0084000008F0007108840070088000152D19
:080A2A00162DC80AA02C0800DB
:0E0A3200831203132B088A002A088200080092
:100A4000562D83120313CB01C121013083120313EE
:100A5000CB00F521023083120313CB00F5210130C6
:100A600083120313A400652DCB01F52101308312FD
:100A70000313CB00C121023083120313CB00F521F5
:100A8000023083120313A400652DCB01F521013040
:100A900083120313CB00F521023083120313CB0022
:100AA000C12183120313A401652D652D8312031345
:100AB0002408003A0319212D2408013A0319342D82
:0C0AC0002408023A0319452D552D0800AA
:0E0ACC00831203132B088A002A0882000800F8
:100ADA0003308312031348020318CE2D0730F000A7
:100AEA004808F400A82170082C3E84000008F00091
:100AFA00840A0008F100840A0008F200840A000847
:100B0A007008F3007108F4007208F5007308F60023
:100B1A000030F0007606031D9C2D70087506031D33
:100B2A009C2D70087406031D9C2D7308003A031946
:100B3A00CE2D0730F0004808F400A82170082C3E9A
:100B4A00840000308000840A8001840A8001073012
:100B5A00F0004808F400A8212C30F007063070078E
:100B6A00840080010730F0004808F400A8212C30E6
:100B7A00F00704307007840080010730F00048084D
:100B8A00F400A8212C30F00703307007840080019C
:040B9A00CE2D080054
:080B9E005E228223842308007B
:100BA6000C3083120313C800C901CA0188230C3014
:100BB60083120313C8000130C900CA0188230C3010
:100BC60083120313C8000230C900CA018823080033
:100BD60003308312031327020318352E0730F00063
:100BE6002708F400A82170082C3E840043088000E2
:100BF6004408840A80004508840A800046080730B5
:100C0600F0002708F400A8212C30F0070430700704
:100C16008400460AF000700880000730F0002708BC
:100C2600F400A8212C30F007033070078400470831
:100C360080000730F0002708F400A8212C30F007C8
:100C460006307007840080010730F0002708F400A2
:100C5600A8212C30F0070530700784002708800093
:060C6600A70A352E08006C
:100C6C000B3083120313C800C901CA0188230B304F
:100C7C0083120313C8000130C900CA0188230B304A
:100C8C0083120313C8000230C900CA0188230B3039
:100C9C0083120313C8000330C900CA0188230B3028
:100CAC0083120313C8000430C900CA0188230B3017
:100CBC0083120313C8000530C900CA018823080039
:100CCC000130831203132806031DC22E9D24C30179
:100CDC00033043020318C12E0730F0004308F40020
:100CEC00A8212C30F0070630700784000008003C67
:100CFC000318BF2E0730F0004308F400A821700839
:100D0C002C3E84000008F000840A0008F100840ADC
:100D1C000008F200840A00087008AA007108AB00F1
:100D2C0066258A110A12073083120313F000430858
:100D3C00F400A8212C30F00706307007F100710880
:100D4C0084000003F00071088400700880000730F4
:100D5C00F0004308F400A8212C30F0070330700792
:100D6C00840000300006031DBE2E4308C8006D250C
:0A0D7C00BF2EC30A6E2EA801080066
:100D860083120313C301033043020318CF2E430813
:100D9600C8006D25C30AC62E622266220130831260
:100DA600C8000430C9007222FA30C800882408003E
:100DB60019258A110A128000840AAA0A0319AB0AA5
:080DC600F003031DDB2E080001
:100DCE000230831203130C05F2007208F100F10CCD
:100DDE00F11301307106031DF72E0130F300F82ECA
:080DEE00F3017308F000080096
:080DF600831203138C100800A6
:100DFE003627C326D3253626203083120313C3008D
:100E0E000530C4000030C5000030C601C830C70030
:100E1E00EB258E30C3000430C4000030C500003016
:100E2E00C830C600C830C700EB259B30C300043065
:100E3E00C4000030C5000030C6010130C700EB25EC
:080E4E00CF256626282F2A2F6C
:100E6C0024308400063083120313F0003030AA00C3
:080E7C000730AB00DB26080083
:020E600000345C
:020E620000345A
:020E6400003458
:020E6600003456
:020E6800013453
:020E6A00003452
:02400E004A2F37
:00000001FF
